{
  "_format": "hh-sol-artifact-1",
  "contractName": "TieredSBT",
  "sourceName": "contracts/sbt.sol",
  "abi": [
    {
      "inputs": [
        {
          "internalType": "string",
          "name": "name",
          "type": "string"
        },
        {
          "internalType": "string",
          "name": "symbol",
          "type": "string"
        },
        {
          "internalType": "address",
          "name": "usdtAddress",
          "type": "address"
        },
        {
          "components": [
            {
              "internalType": "address",
              "name": "wallet",
              "type": "address"
            },
            {
              "internalType": "uint256",
              "name": "fundingLeft",
              "type": "uint256"
            }
          ],
          "internalType": "struct TieredSBT.Recipient[]",
          "name": "addresses",
          "type": "tuple[]"
        },
        {
          "internalType": "uint256",
          "name": "_distributionInterval",
          "type": "uint256"
        },
        {
          "internalType": "uint256",
          "name": "_totalAmountToRaise",
          "type": "uint256"
        }
      ],
      "stateMutability": "nonpayable",
      "type": "constructor"
    },
    {
      "inputs": [
        {
          "internalType": "address",
          "name": "sender",
          "type": "address"
        },
        {
          "internalType": "uint256",
          "name": "tokenId",
          "type": "uint256"
        },
        {
          "internalType": "address",
          "name": "owner",
          "type": "address"
        }
      ],
      "name": "ERC721IncorrectOwner",
      "type": "error"
    },
    {
      "inputs": [
        {
          "internalType": "address",
          "name": "operator",
          "type": "address"
        },
        {
          "internalType": "uint256",
          "name": "tokenId",
          "type": "uint256"
        }
      ],
      "name": "ERC721InsufficientApproval",
      "type": "error"
    },
    {
      "inputs": [
        {
          "internalType": "address",
          "name": "approver",
          "type": "address"
        }
      ],
      "name": "ERC721InvalidApprover",
      "type": "error"
    },
    {
      "inputs": [
        {
          "internalType": "address",
          "name": "operator",
          "type": "address"
        }
      ],
      "name": "ERC721InvalidOperator",
      "type": "error"
    },
    {
      "inputs": [
        {
          "internalType": "address",
          "name": "owner",
          "type": "address"
        }
      ],
      "name": "ERC721InvalidOwner",
      "type": "error"
    },
    {
      "inputs": [
        {
          "internalType": "address",
          "name": "receiver",
          "type": "address"
        }
      ],
      "name": "ERC721InvalidReceiver",
      "type": "error"
    },
    {
      "inputs": [
        {
          "internalType": "address",
          "name": "sender",
          "type": "address"
        }
      ],
      "name": "ERC721InvalidSender",
      "type": "error"
    },
    {
      "inputs": [
        {
          "internalType": "uint256",
          "name": "tokenId",
          "type": "uint256"
        }
      ],
      "name": "ERC721NonexistentToken",
      "type": "error"
    },
    {
      "inputs": [
        {
          "internalType": "address",
          "name": "owner",
          "type": "address"
        }
      ],
      "name": "OwnableInvalidOwner",
      "type": "error"
    },
    {
      "inputs": [
        {
          "internalType": "address",
          "name": "account",
          "type": "address"
        }
      ],
      "name": "OwnableUnauthorizedAccount",
      "type": "error"
    },
    {
      "anonymous": false,
      "inputs": [
        {
          "indexed": true,
          "internalType": "address",
          "name": "owner",
          "type": "address"
        },
        {
          "indexed": true,
          "internalType": "address",
          "name": "approved",
          "type": "address"
        },
        {
          "indexed": true,
          "internalType": "uint256",
          "name": "tokenId",
          "type": "uint256"
        }
      ],
      "name": "Approval",
      "type": "event"
    },
    {
      "anonymous": false,
      "inputs": [
        {
          "indexed": true,
          "internalType": "address",
          "name": "owner",
          "type": "address"
        },
        {
          "indexed": true,
          "internalType": "address",
          "name": "operator",
          "type": "address"
        },
        {
          "indexed": false,
          "internalType": "bool",
          "name": "approved",
          "type": "bool"
        }
      ],
      "name": "ApprovalForAll",
      "type": "event"
    },
    {
      "anonymous": false,
      "inputs": [
        {
          "indexed": false,
          "internalType": "uint256",
          "name": "_fromTokenId",
          "type": "uint256"
        },
        {
          "indexed": false,
          "internalType": "uint256",
          "name": "_toTokenId",
          "type": "uint256"
        }
      ],
      "name": "BatchMetadataUpdate",
      "type": "event"
    },
    {
      "anonymous": false,
      "inputs": [
        {
          "indexed": false,
          "internalType": "uint256",
          "name": "_tokenId",
          "type": "uint256"
        }
      ],
      "name": "MetadataUpdate",
      "type": "event"
    },
    {
      "anonymous": false,
      "inputs": [
        {
          "indexed": true,
          "internalType": "address",
          "name": "previousOwner",
          "type": "address"
        },
        {
          "indexed": true,
          "internalType": "address",
          "name": "newOwner",
          "type": "address"
        }
      ],
      "name": "OwnershipTransferred",
      "type": "event"
    },
    {
      "anonymous": false,
      "inputs": [
        {
          "indexed": true,
          "internalType": "address",
          "name": "to",
          "type": "address"
        },
        {
          "indexed": true,
          "internalType": "uint256",
          "name": "tokenId",
          "type": "uint256"
        },
        {
          "indexed": false,
          "internalType": "enum TieredSBT.Tier",
          "name": "tier",
          "type": "uint8"
        }
      ],
      "name": "SBTMinted",
      "type": "event"
    },
    {
      "anonymous": false,
      "inputs": [
        {
          "indexed": true,
          "internalType": "address",
          "name": "from",
          "type": "address"
        },
        {
          "indexed": true,
          "internalType": "address",
          "name": "to",
          "type": "address"
        },
        {
          "indexed": true,
          "internalType": "uint256",
          "name": "tokenId",
          "type": "uint256"
        }
      ],
      "name": "Transfer",
      "type": "event"
    },
    {
      "inputs": [],
      "name": "DISTRIBUTION_PERCENTAGE",
      "outputs": [
        {
          "internalType": "uint256",
          "name": "",
          "type": "uint256"
        }
      ],
      "stateMutability": "view",
      "type": "function"
    },
    {
      "inputs": [
        {
          "internalType": "address",
          "name": "to",
          "type": "address"
        },
        {
          "internalType": "uint256",
          "name": "tokenId",
          "type": "uint256"
        }
      ],
      "name": "approve",
      "outputs": [],
      "stateMutability": "nonpayable",
      "type": "function"
    },
    {
      "inputs": [
        {
          "internalType": "address",
          "name": "owner",
          "type": "address"
        }
      ],
      "name": "balanceOf",
      "outputs": [
        {
          "internalType": "uint256",
          "name": "",
          "type": "uint256"
        }
      ],
      "stateMutability": "view",
      "type": "function"
    },
    {
      "inputs": [],
      "name": "callAllocateFunds",
      "outputs": [],
      "stateMutability": "nonpayable",
      "type": "function"
    },
    {
      "inputs": [],
      "name": "distributionInterval",
      "outputs": [
        {
          "internalType": "uint256",
          "name": "",
          "type": "uint256"
        }
      ],
      "stateMutability": "view",
      "type": "function"
    },
    {
      "inputs": [
        {
          "internalType": "uint256",
          "name": "tokenId",
          "type": "uint256"
        }
      ],
      "name": "getApproved",
      "outputs": [
        {
          "internalType": "address",
          "name": "",
          "type": "address"
        }
      ],
      "stateMutability": "view",
      "type": "function"
    },
    {
      "inputs": [
        {
          "internalType": "address",
          "name": "owner",
          "type": "address"
        },
        {
          "internalType": "address",
          "name": "operator",
          "type": "address"
        }
      ],
      "name": "isApprovedForAll",
      "outputs": [
        {
          "internalType": "bool",
          "name": "",
          "type": "bool"
        }
      ],
      "stateMutability": "view",
      "type": "function"
    },
    {
      "inputs": [],
      "name": "lastDistributionTime",
      "outputs": [
        {
          "internalType": "uint256",
          "name": "",
          "type": "uint256"
        }
      ],
      "stateMutability": "view",
      "type": "function"
    },
    {
      "inputs": [
        {
          "internalType": "uint256",
          "name": "amount",
          "type": "uint256"
        }
      ],
      "name": "mint",
      "outputs": [],
      "stateMutability": "nonpayable",
      "type": "function"
    },
    {
      "inputs": [],
      "name": "name",
      "outputs": [
        {
          "internalType": "string",
          "name": "",
          "type": "string"
        }
      ],
      "stateMutability": "view",
      "type": "function"
    },
    {
      "inputs": [],
      "name": "nextTokenId",
      "outputs": [
        {
          "internalType": "uint256",
          "name": "",
          "type": "uint256"
        }
      ],
      "stateMutability": "view",
      "type": "function"
    },
    {
      "inputs": [],
      "name": "owner",
      "outputs": [
        {
          "internalType": "address",
          "name": "",
          "type": "address"
        }
      ],
      "stateMutability": "view",
      "type": "function"
    },
    {
      "inputs": [
        {
          "internalType": "uint256",
          "name": "tokenId",
          "type": "uint256"
        }
      ],
      "name": "ownerOf",
      "outputs": [
        {
          "internalType": "address",
          "name": "",
          "type": "address"
        }
      ],
      "stateMutability": "view",
      "type": "function"
    },
    {
      "inputs": [
        {
          "internalType": "uint256",
          "name": "",
          "type": "uint256"
        }
      ],
      "name": "recipients",
      "outputs": [
        {
          "internalType": "address",
          "name": "wallet",
          "type": "address"
        },
        {
          "internalType": "uint256",
          "name": "fundingLeft",
          "type": "uint256"
        }
      ],
      "stateMutability": "view",
      "type": "function"
    },
    {
      "inputs": [],
      "name": "renounceOwnership",
      "outputs": [],
      "stateMutability": "nonpayable",
      "type": "function"
    },
    {
      "inputs": [
        {
          "internalType": "address",
          "name": "from",
          "type": "address"
        },
        {
          "internalType": "address",
          "name": "to",
          "type": "address"
        },
        {
          "internalType": "uint256",
          "name": "tokenId",
          "type": "uint256"
        }
      ],
      "name": "safeTransferFrom",
      "outputs": [],
      "stateMutability": "nonpayable",
      "type": "function"
    },
    {
      "inputs": [
        {
          "internalType": "address",
          "name": "from",
          "type": "address"
        },
        {
          "internalType": "address",
          "name": "to",
          "type": "address"
        },
        {
          "internalType": "uint256",
          "name": "tokenId",
          "type": "uint256"
        },
        {
          "internalType": "bytes",
          "name": "data",
          "type": "bytes"
        }
      ],
      "name": "safeTransferFrom",
      "outputs": [],
      "stateMutability": "nonpayable",
      "type": "function"
    },
    {
      "inputs": [
        {
          "internalType": "address",
          "name": "operator",
          "type": "address"
        },
        {
          "internalType": "bool",
          "name": "approved",
          "type": "bool"
        }
      ],
      "name": "setApprovalForAll",
      "outputs": [],
      "stateMutability": "nonpayable",
      "type": "function"
    },
    {
      "inputs": [
        {
          "internalType": "bytes4",
          "name": "interfaceId",
          "type": "bytes4"
        }
      ],
      "name": "supportsInterface",
      "outputs": [
        {
          "internalType": "bool",
          "name": "",
          "type": "bool"
        }
      ],
      "stateMutability": "view",
      "type": "function"
    },
    {
      "inputs": [],
      "name": "symbol",
      "outputs": [
        {
          "internalType": "string",
          "name": "",
          "type": "string"
        }
      ],
      "stateMutability": "view",
      "type": "function"
    },
    {
      "inputs": [
        {
          "internalType": "uint256",
          "name": "",
          "type": "uint256"
        }
      ],
      "name": "tokenTiers",
      "outputs": [
        {
          "internalType": "enum TieredSBT.Tier",
          "name": "",
          "type": "uint8"
        }
      ],
      "stateMutability": "view",
      "type": "function"
    },
    {
      "inputs": [
        {
          "internalType": "uint256",
          "name": "tokenId",
          "type": "uint256"
        }
      ],
      "name": "tokenURI",
      "outputs": [
        {
          "internalType": "string",
          "name": "",
          "type": "string"
        }
      ],
      "stateMutability": "view",
      "type": "function"
    },
    {
      "inputs": [],
      "name": "totalAmountLeftToRaise",
      "outputs": [
        {
          "internalType": "uint256",
          "name": "",
          "type": "uint256"
        }
      ],
      "stateMutability": "view",
      "type": "function"
    },
    {
      "inputs": [
        {
          "internalType": "address",
          "name": "from",
          "type": "address"
        },
        {
          "internalType": "address",
          "name": "to",
          "type": "address"
        },
        {
          "internalType": "uint256",
          "name": "tokenId",
          "type": "uint256"
        }
      ],
      "name": "transferFrom",
      "outputs": [],
      "stateMutability": "nonpayable",
      "type": "function"
    },
    {
      "inputs": [
        {
          "internalType": "address",
          "name": "newOwner",
          "type": "address"
        }
      ],
      "name": "transferOwnership",
      "outputs": [],
      "stateMutability": "nonpayable",
      "type": "function"
    },
    {
      "inputs": [],
      "name": "usdtToken",
      "outputs": [
        {
          "internalType": "contract IERC20",
          "name": "",
          "type": "address"
        }
      ],
      "stateMutability": "view",
      "type": "function"
    },
    {
      "inputs": [
        {
          "internalType": "address",
          "name": "to",
          "type": "address"
        },
        {
          "internalType": "uint256",
          "name": "amount",
          "type": "uint256"
        }
      ],
      "name": "withdrawUSDT",
      "outputs": [],
      "stateMutability": "nonpayable",
      "type": "function"
    }
  ],
  "bytecode": "0x60806040523480156200001157600080fd5b5060405162003f8c38038062003f8c833981810160405281019062000037919062000643565b33868681600090816200004b91906200097d565b5080600190816200005d91906200097d565b505050600073ffffffffffffffffffffffffffffffffffffffff168173ffffffffffffffffffffffffffffffffffffffff1603620000d55760006040517f1e4fbdf7000000000000000000000000000000000000000000000000000000008152600401620000cc919062000a75565b60405180910390fd5b620000e6816200021160201b60201c565b5083600860006101000a81548173ffffffffffffffffffffffffffffffffffffffff021916908373ffffffffffffffffffffffffffffffffffffffff16021790555060005b8351811015620001e757600a8482815181106200014d576200014c62000a92565b5b6020026020010151908060018154018082558091505060019003906000526020600020906002020160009091909190915060008201518160000160006101000a81548173ffffffffffffffffffffffffffffffffffffffff021916908373ffffffffffffffffffffffffffffffffffffffff1602179055506020820151816001015550508080620001de9062000af0565b9150506200012b565b50600160098190555081600c8190555042600b8190555080600d8190555050505050505062000b3d565b6000600760009054906101000a900473ffffffffffffffffffffffffffffffffffffffff16905081600760006101000a81548173ffffffffffffffffffffffffffffffffffffffff021916908373ffffffffffffffffffffffffffffffffffffffff1602179055508173ffffffffffffffffffffffffffffffffffffffff168173ffffffffffffffffffffffffffffffffffffffff167f8be0079c531659141344cd1fd0a4f28419497f9722a3daafe3b4186f6b6457e060405160405180910390a35050565b6000604051905090565b600080fd5b600080fd5b600080fd5b600080fd5b6000601f19601f8301169050919050565b7f4e487b7100000000000000000000000000000000000000000000000000000000600052604160045260246000fd5b6200034082620002f5565b810181811067ffffffffffffffff8211171562000362576200036162000306565b5b80604052505050565b600062000377620002d7565b905062000385828262000335565b919050565b600067ffffffffffffffff821115620003a857620003a762000306565b5b620003b382620002f5565b9050602081019050919050565b60005b83811015620003e0578082015181840152602081019050620003c3565b60008484015250505050565b600062000403620003fd846200038a565b6200036b565b905082815260208101848484011115620004225762000421620002f0565b5b6200042f848285620003c0565b509392505050565b600082601f8301126200044f576200044e620002eb565b5b815162000461848260208601620003ec565b91505092915050565b600073ffffffffffffffffffffffffffffffffffffffff82169050919050565b600062000497826200046a565b9050919050565b620004a9816200048a565b8114620004b557600080fd5b50565b600081519050620004c9816200049e565b92915050565b600067ffffffffffffffff821115620004ed57620004ec62000306565b5b602082029050602081019050919050565b600080fd5b600080fd5b6000819050919050565b6200051d8162000508565b81146200052957600080fd5b50565b6000815190506200053d8162000512565b92915050565b6000604082840312156200055c576200055b62000503565b5b6200056860406200036b565b905060006200057a84828501620004b8565b600083015250602062000590848285016200052c565b60208301525092915050565b6000620005b3620005ad84620004cf565b6200036b565b90508083825260208201905060408402830185811115620005d957620005d8620004fe565b5b835b81811015620006065780620005f1888262000543565b845260208401935050604081019050620005db565b5050509392505050565b600082601f830112620006285762000627620002eb565b5b81516200063a8482602086016200059c565b91505092915050565b60008060008060008060c08789031215620006635762000662620002e1565b5b600087015167ffffffffffffffff811115620006845762000683620002e6565b5b6200069289828a0162000437565b965050602087015167ffffffffffffffff811115620006b657620006b5620002e6565b5b620006c489828a0162000437565b9550506040620006d789828a01620004b8565b945050606087015167ffffffffffffffff811115620006fb57620006fa620002e6565b5b6200070989828a0162000610565b93505060806200071c89828a016200052c565b92505060a06200072f89828a016200052c565b9150509295509295509295565b600081519050919050565b7f4e487b7100000000000000000000000000000000000000000000000000000000600052602260045260246000fd5b600060028204905060018216806200078f57607f821691505b602082108103620007a557620007a462000747565b5b50919050565b60008190508160005260206000209050919050565b60006020601f8301049050919050565b600082821b905092915050565b6000600883026200080f7fffffffffffffffffffffffffffffffffffffffffffffffffffffffffffffffff82620007d0565b6200081b8683620007d0565b95508019841693508086168417925050509392505050565b6000819050919050565b60006200085e62000858620008528462000508565b62000833565b62000508565b9050919050565b6000819050919050565b6200087a836200083d565b62000892620008898262000865565b848454620007dd565b825550505050565b600090565b620008a96200089a565b620008b68184846200086f565b505050565b5b81811015620008de57620008d26000826200089f565b600181019050620008bc565b5050565b601f8211156200092d57620008f781620007ab565b6200090284620007c0565b8101602085101562000912578190505b6200092a6200092185620007c0565b830182620008bb565b50505b505050565b600082821c905092915050565b6000620009526000198460080262000932565b1980831691505092915050565b60006200096d83836200093f565b9150826002028217905092915050565b62000988826200073c565b67ffffffffffffffff811115620009a457620009a362000306565b5b620009b0825462000776565b620009bd828285620008e2565b600060209050601f831160018114620009f55760008415620009e0578287015190505b620009ec85826200095f565b86555062000a5c565b601f19841662000a0586620007ab565b60005b8281101562000a2f5784890151825560018201915060208501945060208101905062000a08565b8683101562000a4f578489015162000a4b601f8916826200093f565b8355505b6001600288020188555050505b505050505050565b62000a6f816200048a565b82525050565b600060208201905062000a8c600083018462000a64565b92915050565b7f4e487b7100000000000000000000000000000000000000000000000000000000600052603260045260246000fd5b7f4e487b7100000000000000000000000000000000000000000000000000000000600052601160045260246000fd5b600062000afd8262000508565b91507fffffffffffffffffffffffffffffffffffffffffffffffffffffffffffffffff820362000b325762000b3162000ac1565b5b600182019050919050565b61343f8062000b4d6000396000f3fe608060405234801561001057600080fd5b50600436106101a95760003560e01c806375b17350116100f9578063b88d4fde11610097578063e2d87d0611610071578063e2d87d06146104a9578063e985e9c5146104c7578063f2fde38b146104f7578063f716d78f14610513576101a9565b8063b88d4fde1461042c578063c87b56dd14610448578063d1bc76a114610478576101a9565b806395d89b41116100d357806395d89b41146103b8578063a0712d68146103d6578063a22cb465146103f2578063a98ad46c1461040e576101a9565b806375b173501461034c578063818f2e421461036a5780638da5cb5b1461039a576101a9565b80633a57f0421161016657806370a082311161014057806370a08231146102d657806371201a0e14610306578063715018a61461032457806375794a3c1461032e576101a9565b80633a57f0421461028057806342842e0e1461028a5780636352211e146102a6576101a9565b806301ffc9a7146101ae57806306fdde03146101de578063081812fc146101fc578063095ea7b31461022c5780631481794e1461024857806323b872dd14610264575b600080fd5b6101c860048036038101906101c391906123ed565b610531565b6040516101d59190612435565b60405180910390f35b6101e6610592565b6040516101f391906124e0565b60405180910390f35b61021660048036038101906102119190612538565b610624565b60405161022391906125a6565b60405180910390f35b610246600480360381019061024191906125ed565b610640565b005b610262600480360381019061025d91906125ed565b610656565b005b61027e6004803603810190610279919061262d565b610741565b005b610288610843565b005b6102a4600480360381019061029f919061262d565b610855565b005b6102c060048036038101906102bb9190612538565b610875565b6040516102cd91906125a6565b60405180910390f35b6102f060048036038101906102eb9190612680565b610887565b6040516102fd91906126bc565b60405180910390f35b61030e610941565b60405161031b91906126bc565b60405180910390f35b61032c610947565b005b61033661095b565b60405161034391906126bc565b60405180910390f35b610354610961565b60405161036191906126bc565b60405180910390f35b610384600480360381019061037f9190612538565b610967565b604051610391919061274e565b60405180910390f35b6103a2610987565b6040516103af91906125a6565b60405180910390f35b6103c06109b1565b6040516103cd91906124e0565b60405180910390f35b6103f060048036038101906103eb9190612538565b610a43565b005b61040c60048036038101906104079190612795565b610c68565b005b610416610c7e565b6040516104239190612834565b60405180910390f35b61044660048036038101906104419190612984565b610ca4565b005b610462600480360381019061045d9190612538565b610cc9565b60405161046f91906124e0565b60405180910390f35b610492600480360381019061048d9190612538565b610ddc565b6040516104a0929190612a07565b60405180910390f35b6104b1610e30565b6040516104be91906126bc565b60405180910390f35b6104e160048036038101906104dc9190612a30565b610e35565b6040516104ee9190612435565b60405180910390f35b610511600480360381019061050c9190612680565b610ec9565b005b61051b610f4f565b60405161052891906126bc565b60405180910390f35b6000634906490660e01b7bffffffffffffffffffffffffffffffffffffffffffffffffffffffff1916827bffffffffffffffffffffffffffffffffffffffffffffffffffffffff1916148061058b575061058a82610f55565b5b9050919050565b6060600080546105a190612a9f565b80601f01602080910402602001604051908101604052809291908181526020018280546105cd90612a9f565b801561061a5780601f106105ef5761010080835404028352916020019161061a565b820191906000526020600020905b8154815290600101906020018083116105fd57829003601f168201915b5050505050905090565b600061062f82611037565b50610639826110bf565b9050919050565b610652828261064d6110fc565b611104565b5050565b61065e611116565b600860009054906101000a900473ffffffffffffffffffffffffffffffffffffffff1673ffffffffffffffffffffffffffffffffffffffff1663a9059cbb83836040518363ffffffff1660e01b81526004016106bb929190612a07565b6020604051808303816000875af11580156106da573d6000803e3d6000fd5b505050506040513d601f19601f820116820180604052508101906106fe9190612ae5565b61073d576040517f08c379a000000000000000000000000000000000000000000000000000000000815260040161073490612b5e565b60405180910390fd5b5050565b600073ffffffffffffffffffffffffffffffffffffffff168273ffffffffffffffffffffffffffffffffffffffff16036107b35760006040517f64a0ae920000000000000000000000000000000000000000000000000000000081526004016107aa91906125a6565b60405180910390fd5b60006107c783836107c26110fc565b61119d565b90508373ffffffffffffffffffffffffffffffffffffffff168173ffffffffffffffffffffffffffffffffffffffff161461083d578382826040517f64283d7b00000000000000000000000000000000000000000000000000000000815260040161083493929190612b7e565b60405180910390fd5b50505050565b61084b611116565b6108536113b7565b565b61087083838360405180602001604052806000815250610ca4565b505050565b600061088082611037565b9050919050565b60008073ffffffffffffffffffffffffffffffffffffffff168273ffffffffffffffffffffffffffffffffffffffff16036108fa5760006040517f89c62b640000000000000000000000000000000000000000000000000000000081526004016108f191906125a6565b60405180910390fd5b600360008373ffffffffffffffffffffffffffffffffffffffff1673ffffffffffffffffffffffffffffffffffffffff168152602001908152602001600020549050919050565b600c5481565b61094f611116565b61095960006116f9565b565b60095481565b600b5481565b600e6020528060005260406000206000915054906101000a900460ff1681565b6000600760009054906101000a900473ffffffffffffffffffffffffffffffffffffffff16905090565b6060600180546109c090612a9f565b80601f01602080910402602001604051908101604052809291908181526020018280546109ec90612a9f565b8015610a395780601f10610a0e57610100808354040283529160200191610a39565b820191906000526020600020905b815481529060010190602001808311610a1c57829003601f168201915b5050505050905090565b630bebc200811015610a8a576040517f08c379a0000000000000000000000000000000000000000000000000000000008152600401610a8190612c01565b60405180910390fd5b6000633b9aca00821015610aa15760009050610abd565b6402540be400821015610ab75760019050610abc565b600290505b5b600860009054906101000a900473ffffffffffffffffffffffffffffffffffffffff1673ffffffffffffffffffffffffffffffffffffffff166323b872dd3330856040518463ffffffff1660e01b8152600401610b1c93929190612c21565b6020604051808303816000875af1158015610b3b573d6000803e3d6000fd5b505050506040513d601f19601f82011682018060405250810190610b5f9190612ae5565b610b9e576040517f08c379a0000000000000000000000000000000000000000000000000000000008152600401610b9590612b5e565b60405180910390fd5b60006009549050610baf33826117bf565b610bc181610bbc846118b8565b611973565b81600e600083815260200190815260200160002060006101000a81548160ff02191690836002811115610bf757610bf66126d7565b5b0217905550803373ffffffffffffffffffffffffffffffffffffffff167f6cbac4c9e2aad11beed184b6784b7f2b5d9c250182ce7238f85c8980490c3bdf84604051610c43919061274e565b60405180910390a360096000815480929190610c5e90612c87565b9190505550505050565b610c7a610c736110fc565b83836119cf565b5050565b600860009054906101000a900473ffffffffffffffffffffffffffffffffffffffff1681565b610caf848484610741565b610cc3610cba6110fc565b85858585611b3e565b50505050565b6060610cd482611037565b506000600660008481526020019081526020016000208054610cf590612a9f565b80601f0160208091040260200160405190810160405280929190818152602001828054610d2190612a9f565b8015610d6e5780601f10610d4357610100808354040283529160200191610d6e565b820191906000526020600020905b815481529060010190602001808311610d5157829003601f168201915b505050505090506000610d7f611cef565b90506000815103610d94578192505050610dd7565b600082511115610dc9578082604051602001610db1929190612d0b565b60405160208183030381529060405292505050610dd7565b610dd284611d06565b925050505b919050565b600a8181548110610dec57600080fd5b90600052602060002090600202016000915090508060000160009054906101000a900473ffffffffffffffffffffffffffffffffffffffff16908060010154905082565b604681565b6000600560008473ffffffffffffffffffffffffffffffffffffffff1673ffffffffffffffffffffffffffffffffffffffff16815260200190815260200160002060008373ffffffffffffffffffffffffffffffffffffffff1673ffffffffffffffffffffffffffffffffffffffff16815260200190815260200160002060009054906101000a900460ff16905092915050565b610ed1611116565b600073ffffffffffffffffffffffffffffffffffffffff168173ffffffffffffffffffffffffffffffffffffffff1603610f435760006040517f1e4fbdf7000000000000000000000000000000000000000000000000000000008152600401610f3a91906125a6565b60405180910390fd5b610f4c816116f9565b50565b600d5481565b60007f80ac58cd000000000000000000000000000000000000000000000000000000007bffffffffffffffffffffffffffffffffffffffffffffffffffffffff1916827bffffffffffffffffffffffffffffffffffffffffffffffffffffffff1916148061102057507f5b5e139f000000000000000000000000000000000000000000000000000000007bffffffffffffffffffffffffffffffffffffffffffffffffffffffff1916827bffffffffffffffffffffffffffffffffffffffffffffffffffffffff1916145b80611030575061102f82611d6f565b5b9050919050565b60008061104383611dd9565b9050600073ffffffffffffffffffffffffffffffffffffffff168173ffffffffffffffffffffffffffffffffffffffff16036110b657826040517f7e2732890000000000000000000000000000000000000000000000000000000081526004016110ad91906126bc565b60405180910390fd5b80915050919050565b60006004600083815260200190815260200160002060009054906101000a900473ffffffffffffffffffffffffffffffffffffffff169050919050565b600033905090565b6111118383836001611e16565b505050565b61111e6110fc565b73ffffffffffffffffffffffffffffffffffffffff1661113c610987565b73ffffffffffffffffffffffffffffffffffffffff161461119b5761115f6110fc565b6040517f118cdaa700000000000000000000000000000000000000000000000000000000815260040161119291906125a6565b60405180910390fd5b565b6000806111a984611dd9565b9050600073ffffffffffffffffffffffffffffffffffffffff168373ffffffffffffffffffffffffffffffffffffffff16146111eb576111ea818486611fdb565b5b600073ffffffffffffffffffffffffffffffffffffffff168173ffffffffffffffffffffffffffffffffffffffff161461127c5761122d600085600080611e16565b6001600360008373ffffffffffffffffffffffffffffffffffffffff1673ffffffffffffffffffffffffffffffffffffffff168152602001908152602001600020600082825403925050819055505b600073ffffffffffffffffffffffffffffffffffffffff168573ffffffffffffffffffffffffffffffffffffffff16146112ff576001600360008773ffffffffffffffffffffffffffffffffffffffff1673ffffffffffffffffffffffffffffffffffffffff168152602001908152602001600020600082825401925050819055505b846002600086815260200190815260200160002060006101000a81548173ffffffffffffffffffffffffffffffffffffffff021916908373ffffffffffffffffffffffffffffffffffffffff160217905550838573ffffffffffffffffffffffffffffffffffffffff168273ffffffffffffffffffffffffffffffffffffffff167fddf252ad1be2c89b69c2b068fc378daa952ba7f163c4a11628f55a4df523b3ef60405160405180910390a4809150509392505050565b600c54600b546113c79190612d2f565b421015611409576040517f08c379a000000000000000000000000000000000000000000000000000000000815260040161140090612dd5565b60405180910390fd5b6000600a8054905011611451576040517f08c379a000000000000000000000000000000000000000000000000000000000815260040161144890612e41565b60405180910390fd5b6000600860009054906101000a900473ffffffffffffffffffffffffffffffffffffffff1673ffffffffffffffffffffffffffffffffffffffff166370a08231306040518263ffffffff1660e01b81526004016114ae91906125a6565b602060405180830381865afa1580156114cb573d6000803e3d6000fd5b505050506040513d601f19601f820116820180604052508101906114ef9190612e76565b9050600060646046836115029190612ea3565b61150c9190612f14565b905060005b600a805490508110156116d4576000600d54600a838154811061153757611536612f45565b5b906000526020600020906002020160010154846115549190612ea3565b61155e9190612f14565b9050600860009054906101000a900473ffffffffffffffffffffffffffffffffffffffff1673ffffffffffffffffffffffffffffffffffffffff1663a9059cbb600a84815481106115b2576115b1612f45565b5b906000526020600020906002020160000160009054906101000a900473ffffffffffffffffffffffffffffffffffffffff16836040518363ffffffff1660e01b8152600401611602929190612a07565b6020604051808303816000875af1158015611621573d6000803e3d6000fd5b505050506040513d601f19601f820116820180604052508101906116459190612ae5565b611684576040517f08c379a000000000000000000000000000000000000000000000000000000000815260040161167b90612fc0565b60405180910390fd5b80600a838154811061169957611698612f45565b5b906000526020600020906002020160010160008282546116b99190612fe0565b925050819055505080806116cc90612c87565b915050611511565b5042600b8190555080600d60008282546116ee9190612fe0565b925050819055505050565b6000600760009054906101000a900473ffffffffffffffffffffffffffffffffffffffff16905081600760006101000a81548173ffffffffffffffffffffffffffffffffffffffff021916908373ffffffffffffffffffffffffffffffffffffffff1602179055508173ffffffffffffffffffffffffffffffffffffffff168173ffffffffffffffffffffffffffffffffffffffff167f8be0079c531659141344cd1fd0a4f28419497f9722a3daafe3b4186f6b6457e060405160405180910390a35050565b600073ffffffffffffffffffffffffffffffffffffffff168273ffffffffffffffffffffffffffffffffffffffff16036118315760006040517f64a0ae9200000000000000000000000000000000000000000000000000000000815260040161182891906125a6565b60405180910390fd5b600061183f8383600061119d565b9050600073ffffffffffffffffffffffffffffffffffffffff168173ffffffffffffffffffffffffffffffffffffffff16146118b35760006040517f73c6ac6e0000000000000000000000000000000000000000000000000000000081526004016118aa91906125a6565b60405180910390fd5b505050565b6060600060028111156118ce576118cd6126d7565b5b8260028111156118e1576118e06126d7565b5b036119065760405180606001604052806034815260200161336c60349139905061196e565b6001600281111561191a576119196126d7565b5b82600281111561192d5761192c6126d7565b5b03611952576040518060600160405280603581526020016133a060359139905061196e565b6040518060600160405280603581526020016133d56035913990505b919050565b8060066000848152602001908152602001600020908161199391906131b6565b507ff8e1a15aba9398e019f0b49df1a4fde98ee17ae345cb5f6b5e2c27f5033e8ce7826040516119c391906126bc565b60405180910390a15050565b600073ffffffffffffffffffffffffffffffffffffffff168273ffffffffffffffffffffffffffffffffffffffff1603611a4057816040517f5b08ba18000000000000000000000000000000000000000000000000000000008152600401611a3791906125a6565b60405180910390fd5b80600560008573ffffffffffffffffffffffffffffffffffffffff1673ffffffffffffffffffffffffffffffffffffffff16815260200190815260200160002060008473ffffffffffffffffffffffffffffffffffffffff1673ffffffffffffffffffffffffffffffffffffffff16815260200190815260200160002060006101000a81548160ff0219169083151502179055508173ffffffffffffffffffffffffffffffffffffffff168373ffffffffffffffffffffffffffffffffffffffff167f17307eab39ab6107e8899845ad3d59bd9653f200f220920489ca2b5937696c3183604051611b319190612435565b60405180910390a3505050565b60008373ffffffffffffffffffffffffffffffffffffffff163b1115611ce8578273ffffffffffffffffffffffffffffffffffffffff1663150b7a02868685856040518563ffffffff1660e01b8152600401611b9d94939291906132dd565b6020604051808303816000875af1925050508015611bd957506040513d601f19601f82011682018060405250810190611bd6919061333e565b60015b611c5d573d8060008114611c09576040519150601f19603f3d011682016040523d82523d6000602084013e611c0e565b606091505b506000815103611c5557836040517f64a0ae92000000000000000000000000000000000000000000000000000000008152600401611c4c91906125a6565b60405180910390fd5b805181602001fd5b63150b7a0260e01b7bffffffffffffffffffffffffffffffffffffffffffffffffffffffff1916817bffffffffffffffffffffffffffffffffffffffffffffffffffffffff191614611ce657836040517f64a0ae92000000000000000000000000000000000000000000000000000000008152600401611cdd91906125a6565b60405180910390fd5b505b5050505050565b606060405180602001604052806000815250905090565b6060611d1182611037565b506000611d1c611cef565b90506000815111611d3c5760405180602001604052806000815250611d67565b80611d468461209f565b604051602001611d57929190612d0b565b6040516020818303038152906040525b915050919050565b60007f01ffc9a7000000000000000000000000000000000000000000000000000000007bffffffffffffffffffffffffffffffffffffffffffffffffffffffff1916827bffffffffffffffffffffffffffffffffffffffffffffffffffffffff1916149050919050565b60006002600083815260200190815260200160002060009054906101000a900473ffffffffffffffffffffffffffffffffffffffff169050919050565b8080611e4f5750600073ffffffffffffffffffffffffffffffffffffffff168273ffffffffffffffffffffffffffffffffffffffff1614155b15611f83576000611e5f84611037565b9050600073ffffffffffffffffffffffffffffffffffffffff168373ffffffffffffffffffffffffffffffffffffffff1614158015611eca57508273ffffffffffffffffffffffffffffffffffffffff168173ffffffffffffffffffffffffffffffffffffffff1614155b8015611edd5750611edb8184610e35565b155b15611f1f57826040517fa9fbf51f000000000000000000000000000000000000000000000000000000008152600401611f1691906125a6565b60405180910390fd5b8115611f8157838573ffffffffffffffffffffffffffffffffffffffff168273ffffffffffffffffffffffffffffffffffffffff167f8c5be1e5ebec7d5bd14f71427d1e84f3dd0314c0f7b2291e5b200ac8c7c3b92560405160405180910390a45b505b836004600085815260200190815260200160002060006101000a81548173ffffffffffffffffffffffffffffffffffffffff021916908373ffffffffffffffffffffffffffffffffffffffff16021790555050505050565b611fe683838361216d565b61209a57600073ffffffffffffffffffffffffffffffffffffffff168373ffffffffffffffffffffffffffffffffffffffff160361205b57806040517f7e27328900000000000000000000000000000000000000000000000000000000815260040161205291906126bc565b60405180910390fd5b81816040517f177e802f000000000000000000000000000000000000000000000000000000008152600401612091929190612a07565b60405180910390fd5b505050565b6060600060016120ae8461222e565b01905060008167ffffffffffffffff8111156120cd576120cc612859565b5b6040519080825280601f01601f1916602001820160405280156120ff5781602001600182028036833780820191505090505b509050600082602001820190505b600115612162578080600190039150507f3031323334353637383961626364656600000000000000000000000000000000600a86061a8153600a858161215657612155612ee5565b5b0494506000850361210d575b819350505050919050565b60008073ffffffffffffffffffffffffffffffffffffffff168373ffffffffffffffffffffffffffffffffffffffff161415801561222557508273ffffffffffffffffffffffffffffffffffffffff168473ffffffffffffffffffffffffffffffffffffffff1614806121e657506121e58484610e35565b5b8061222457508273ffffffffffffffffffffffffffffffffffffffff1661220c836110bf565b73ffffffffffffffffffffffffffffffffffffffff16145b5b90509392505050565b600080600090507a184f03e93ff9f4daa797ed6e38ed64bf6a1f010000000000000000831061228c577a184f03e93ff9f4daa797ed6e38ed64bf6a1f010000000000000000838161228257612281612ee5565b5b0492506040810190505b6d04ee2d6d415b85acef810000000083106122c9576d04ee2d6d415b85acef810000000083816122bf576122be612ee5565b5b0492506020810190505b662386f26fc1000083106122f857662386f26fc1000083816122ee576122ed612ee5565b5b0492506010810190505b6305f5e1008310612321576305f5e100838161231757612316612ee5565b5b0492506008810190505b612710831061234657612710838161233c5761233b612ee5565b5b0492506004810190505b60648310612369576064838161235f5761235e612ee5565b5b0492506002810190505b600a8310612378576001810190505b80915050919050565b6000604051905090565b600080fd5b600080fd5b60007fffffffff0000000000000000000000000000000000000000000000000000000082169050919050565b6123ca81612395565b81146123d557600080fd5b50565b6000813590506123e7816123c1565b92915050565b6000602082840312156124035761240261238b565b5b6000612411848285016123d8565b91505092915050565b60008115159050919050565b61242f8161241a565b82525050565b600060208201905061244a6000830184612426565b92915050565b600081519050919050565b600082825260208201905092915050565b60005b8381101561248a57808201518184015260208101905061246f565b60008484015250505050565b6000601f19601f8301169050919050565b60006124b282612450565b6124bc818561245b565b93506124cc81856020860161246c565b6124d581612496565b840191505092915050565b600060208201905081810360008301526124fa81846124a7565b905092915050565b6000819050919050565b61251581612502565b811461252057600080fd5b50565b6000813590506125328161250c565b92915050565b60006020828403121561254e5761254d61238b565b5b600061255c84828501612523565b91505092915050565b600073ffffffffffffffffffffffffffffffffffffffff82169050919050565b600061259082612565565b9050919050565b6125a081612585565b82525050565b60006020820190506125bb6000830184612597565b92915050565b6125ca81612585565b81146125d557600080fd5b50565b6000813590506125e7816125c1565b92915050565b600080604083850312156126045761260361238b565b5b6000612612858286016125d8565b925050602061262385828601612523565b9150509250929050565b6000806000606084860312156126465761264561238b565b5b6000612654868287016125d8565b9350506020612665868287016125d8565b925050604061267686828701612523565b9150509250925092565b6000602082840312156126965761269561238b565b5b60006126a4848285016125d8565b91505092915050565b6126b681612502565b82525050565b60006020820190506126d160008301846126ad565b92915050565b7f4e487b7100000000000000000000000000000000000000000000000000000000600052602160045260246000fd5b60038110612717576127166126d7565b5b50565b600081905061272882612706565b919050565b60006127388261271a565b9050919050565b6127488161272d565b82525050565b6000602082019050612763600083018461273f565b92915050565b6127728161241a565b811461277d57600080fd5b50565b60008135905061278f81612769565b92915050565b600080604083850312156127ac576127ab61238b565b5b60006127ba858286016125d8565b92505060206127cb85828601612780565b9150509250929050565b6000819050919050565b60006127fa6127f56127f084612565565b6127d5565b612565565b9050919050565b600061280c826127df565b9050919050565b600061281e82612801565b9050919050565b61282e81612813565b82525050565b60006020820190506128496000830184612825565b92915050565b600080fd5b600080fd5b7f4e487b7100000000000000000000000000000000000000000000000000000000600052604160045260246000fd5b61289182612496565b810181811067ffffffffffffffff821117156128b0576128af612859565b5b80604052505050565b60006128c3612381565b90506128cf8282612888565b919050565b600067ffffffffffffffff8211156128ef576128ee612859565b5b6128f882612496565b9050602081019050919050565b82818337600083830152505050565b6000612927612922846128d4565b6128b9565b90508281526020810184848401111561294357612942612854565b5b61294e848285612905565b509392505050565b600082601f83011261296b5761296a61284f565b5b813561297b848260208601612914565b91505092915050565b6000806000806080858703121561299e5761299d61238b565b5b60006129ac878288016125d8565b94505060206129bd878288016125d8565b93505060406129ce87828801612523565b925050606085013567ffffffffffffffff8111156129ef576129ee612390565b5b6129fb87828801612956565b91505092959194509250565b6000604082019050612a1c6000830185612597565b612a2960208301846126ad565b9392505050565b60008060408385031215612a4757612a4661238b565b5b6000612a55858286016125d8565b9250506020612a66858286016125d8565b9150509250929050565b7f4e487b7100000000000000000000000000000000000000000000000000000000600052602260045260246000fd5b60006002820490506001821680612ab757607f821691505b602082108103612aca57612ac9612a70565b5b50919050565b600081519050612adf81612769565b92915050565b600060208284031215612afb57612afa61238b565b5b6000612b0984828501612ad0565b91505092915050565b7f55534454207472616e73666572206661696c6564000000000000000000000000600082015250565b6000612b4860148361245b565b9150612b5382612b12565b602082019050919050565b60006020820190508181036000830152612b7781612b3b565b9050919050565b6000606082019050612b936000830186612597565b612ba060208301856126ad565b612bad6040830184612597565b949350505050565b7f4d696e696d756d207061796d656e742069732032303020555344540000000000600082015250565b6000612beb601b8361245b565b9150612bf682612bb5565b602082019050919050565b60006020820190508181036000830152612c1a81612bde565b9050919050565b6000606082019050612c366000830186612597565b612c436020830185612597565b612c5060408301846126ad565b949350505050565b7f4e487b7100000000000000000000000000000000000000000000000000000000600052601160045260246000fd5b6000612c9282612502565b91507fffffffffffffffffffffffffffffffffffffffffffffffffffffffffffffffff8203612cc457612cc3612c58565b5b600182019050919050565b600081905092915050565b6000612ce582612450565b612cef8185612ccf565b9350612cff81856020860161246c565b80840191505092915050565b6000612d178285612cda565b9150612d238284612cda565b91508190509392505050565b6000612d3a82612502565b9150612d4583612502565b9250828201905080821115612d5d57612d5c612c58565b5b92915050565b7f646973747269627574696f6e20696e74657276616c206e6f742072656163686560008201527f6400000000000000000000000000000000000000000000000000000000000000602082015250565b6000612dbf60218361245b565b9150612dca82612d63565b604082019050919050565b60006020820190508181036000830152612dee81612db2565b9050919050565b7f6e6f20726563697069656e747320616464656400000000000000000000000000600082015250565b6000612e2b60138361245b565b9150612e3682612df5565b602082019050919050565b60006020820190508181036000830152612e5a81612e1e565b9050919050565b600081519050612e708161250c565b92915050565b600060208284031215612e8c57612e8b61238b565b5b6000612e9a84828501612e61565b91505092915050565b6000612eae82612502565b9150612eb983612502565b9250828202612ec781612502565b91508282048414831517612ede57612edd612c58565b5b5092915050565b7f4e487b7100000000000000000000000000000000000000000000000000000000600052601260045260246000fd5b6000612f1f82612502565b9150612f2a83612502565b925082612f3a57612f39612ee5565b5b828204905092915050565b7f4e487b7100000000000000000000000000000000000000000000000000000000600052603260045260246000fd5b7f7472616e73666572206661696c65640000000000000000000000000000000000600082015250565b6000612faa600f8361245b565b9150612fb582612f74565b602082019050919050565b60006020820190508181036000830152612fd981612f9d565b9050919050565b6000612feb82612502565b9150612ff683612502565b925082820390508181111561300e5761300d612c58565b5b92915050565b60008190508160005260206000209050919050565b60006020601f8301049050919050565b600082821b905092915050565b6000600883026130767fffffffffffffffffffffffffffffffffffffffffffffffffffffffffffffffff82613039565b6130808683613039565b95508019841693508086168417925050509392505050565b60006130b36130ae6130a984612502565b6127d5565b612502565b9050919050565b6000819050919050565b6130cd83613098565b6130e16130d9826130ba565b848454613046565b825550505050565b600090565b6130f66130e9565b6131018184846130c4565b505050565b5b818110156131255761311a6000826130ee565b600181019050613107565b5050565b601f82111561316a5761313b81613014565b61314484613029565b81016020851015613153578190505b61316761315f85613029565b830182613106565b50505b505050565b600082821c905092915050565b600061318d6000198460080261316f565b1980831691505092915050565b60006131a6838361317c565b9150826002028217905092915050565b6131bf82612450565b67ffffffffffffffff8111156131d8576131d7612859565b5b6131e28254612a9f565b6131ed828285613129565b600060209050601f831160018114613220576000841561320e578287015190505b613218858261319a565b865550613280565b601f19841661322e86613014565b60005b8281101561325657848901518255600182019150602085019450602081019050613231565b86831015613273578489015161326f601f89168261317c565b8355505b6001600288020188555050505b505050505050565b600081519050919050565b600082825260208201905092915050565b60006132af82613288565b6132b98185613293565b93506132c981856020860161246c565b6132d281612496565b840191505092915050565b60006080820190506132f26000830187612597565b6132ff6020830186612597565b61330c60408301856126ad565b818103606083015261331e81846132a4565b905095945050505050565b600081519050613338816123c1565b92915050565b6000602082840312156133545761335361238b565b5b600061336284828501613329565b9150509291505056fe697066733a2f516d653576594b757a767977423332693753326961586b76483258696466483654447271664a515773476834654b697066733a2f2f516d516e77454e51734d556876377a4b7252744b7a336f3869483274504a62384466706971655a35537972685332697066733a2f2f516d56546b67357136364773746132566550474a6f6d4e477553516d725663346a31706e38464671365659686d62a2646970667358221220bce133bd002bc188cd94645323d54b436076790c5b2f7d853486fc026337aba864736f6c63430008140033",
  "linkReferences": {},
  "deployedLinkReferences": {}
}